:020000040000FA
:10000000A404C4040302F80E3D00E304C304A304E3
:1000100004006100C20C020066006700CF0C0600FD
:10002000F70C0700300C2900EB0C2800EA0C2B0021
:10003000A80C2C00F109F1097B007400790075000F
:1000400067048604A6041D02180F43072A0A530AF0
:04005000000800089C
:0C0054000802800E4307E40A01029A0132
:10006000800E43062A0A7A02B902C30C990143079B
:100070002A0A7900B502020C950143072A0A750085
:100080007B03EB061B05EB077B001402B402080F91
:1000900043072A0A1B02FF0E4307E40A7B00740091
:1000A00079007500530A6805050C94004306740036
:1000B000010C3200010C33001402D2093600A605EF
:1000C000670413023800F802630A0000E8063403EC
:1000D00001029A016705800E4306700A7A02B9028E
:1000E000160299004307600A6704A6047900F10923
:1000F000F1098605670413023800F8027D0A000042
:10010000E806340301029A016705800E43068A0A55
:100110007A02B9021602990043077A0A8604670434
:100120008604A604680401029A01800E4306930A1D
:100130007A02B902C30C99014307930A7900B40209
:10014000050C94014306FC09B502020C9501430716
:10015000530A75006B05F1097B03EB061B05EB07E2
:100160007B006B041B02FF0F4307530A7B006B05E8
:10017000F109E40ABA0AE2010108020804080508C4
:10018000060806080508030802080108E2010A0833
:1001900013081D0827083108E201050805080908A9
:1001A0001D083108E2010508050809081D08610855
:1001B000E2010908090809081D081D08E2010908EB
:1001C00009081D081D08610866006700FF0C06008D
:1001D000FF0C0700300C2900E30C28000B022F0055
:1001E0000300F20AF30AF40AF50AF60AF70AF80A13
:1001F000F90AFA0AFB0A000801029A01800E430676
:10020000FC0A7A02B9020A0C99014307FC0A790038
:10021000B702220C97014307FC0A77000008E106A9
:100220006705E10767040F0BEB066705EB0767043B
:02023000140BAD
:021FFE00940F3E
:00000001FF
